{
  "contractName": "Votacion",
  "abi": [
    {
      "inputs": [],
      "stateMutability": "nonpayable",
      "type": "constructor"
    },
    {
      "anonymous": false,
      "inputs": [
        {
          "indexed": true,
          "internalType": "uint256",
          "name": "_candidateId",
          "type": "uint256"
        }
      ],
      "name": "votedEvent",
      "type": "event"
    },
    {
      "inputs": [
        {
          "internalType": "uint256",
          "name": "",
          "type": "uint256"
        }
      ],
      "name": "candidates",
      "outputs": [
        {
          "internalType": "uint256",
          "name": "id",
          "type": "uint256"
        },
        {
          "internalType": "string",
          "name": "name",
          "type": "string"
        },
        {
          "internalType": "uint256",
          "name": "voteCount",
          "type": "uint256"
        }
      ],
      "stateMutability": "view",
      "type": "function",
      "constant": true
    },
    {
      "inputs": [],
      "name": "candidatesCount",
      "outputs": [
        {
          "internalType": "uint256",
          "name": "",
          "type": "uint256"
        }
      ],
      "stateMutability": "view",
      "type": "function",
      "constant": true
    },
    {
      "inputs": [
        {
          "internalType": "address",
          "name": "",
          "type": "address"
        }
      ],
      "name": "voters",
      "outputs": [
        {
          "internalType": "bool",
          "name": "",
          "type": "bool"
        }
      ],
      "stateMutability": "view",
      "type": "function",
      "constant": true
    },
    {
      "inputs": [
        {
          "internalType": "uint256",
          "name": "_candidateId",
          "type": "uint256"
        }
      ],
      "name": "vote",
      "outputs": [],
      "stateMutability": "nonpayable",
      "type": "function"
    },
    {
      "inputs": [
        {
          "internalType": "address",
          "name": "_address",
          "type": "address"
        }
      ],
      "name": "isAddressValid",
      "outputs": [
        {
          "internalType": "bool",
          "name": "",
          "type": "bool"
        }
      ],
      "stateMutability": "view",
      "type": "function",
      "constant": true
    },
    {
      "inputs": [
        {
          "internalType": "address",
          "name": "_voterAddress",
          "type": "address"
        }
      ],
      "name": "isVoted",
      "outputs": [
        {
          "internalType": "bool",
          "name": "",
          "type": "bool"
        }
      ],
      "stateMutability": "view",
      "type": "function",
      "constant": true
    },
    {
      "inputs": [
        {
          "internalType": "uint256",
          "name": "_candidateId",
          "type": "uint256"
        }
      ],
      "name": "getCandidateId",
      "outputs": [
        {
          "internalType": "uint256",
          "name": "",
          "type": "uint256"
        }
      ],
      "stateMutability": "view",
      "type": "function",
      "constant": true
    },
    {
      "inputs": [
        {
          "internalType": "uint256",
          "name": "_candidateId",
          "type": "uint256"
        }
      ],
      "name": "getCandidateName",
      "outputs": [
        {
          "internalType": "string",
          "name": "",
          "type": "string"
        }
      ],
      "stateMutability": "view",
      "type": "function",
      "constant": true
    },
    {
      "inputs": [
        {
          "internalType": "uint256",
          "name": "_candidateId",
          "type": "uint256"
        }
      ],
      "name": "getCandidateVotersCount",
      "outputs": [
        {
          "internalType": "uint256",
          "name": "",
          "type": "uint256"
        }
      ],
      "stateMutability": "view",
      "type": "function",
      "constant": true
    }
  ],
  "bytecode": "0x6080604052604051806060016040528073033543c6e665a3d67a33a7c6085f6abd49a7f09873ffffffffffffffffffffffffffffffffffffffff1673ffffffffffffffffffffffffffffffffffffffff1681526020017378c35a5fe4bcc134adca2e9d4222e2a5c4d5073673ffffffffffffffffffffffffffffffffffffffff1673ffffffffffffffffffffffffffffffffffffffff1681526020017307145aecd7b0a10cc4df0c7e32000ff545695af773ffffffffffffffffffffffffffffffffffffffff1673ffffffffffffffffffffffffffffffffffffffff1681525060009060036100ef929190610206565b503480156100fc57600080fd5b506101416040518060400160405280600b81526020017f43616e64696461746f203100000000000000000000000000000000000000000081525061018a60201b60201c565b6101856040518060400160405280600b81526020017f43616e64696461746f203200000000000000000000000000000000000000000081525061018a60201b60201c565b610368565b6003600081548092919060010191905055506040518060600160405280600354815260200182815260200160008152506002600060035481526020019081526020016000206000820151816000015560208201518160010190805190602001906101f5929190610290565b506040820151816002015590505050565b82805482825590600052602060002090810192821561027f579160200282015b8281111561027e5782518260006101000a81548173ffffffffffffffffffffffffffffffffffffffff021916908373ffffffffffffffffffffffffffffffffffffffff16021790555091602001919060010190610226565b5b50905061028c9190610310565b5090565b828054600181600116156101000203166002900490600052602060002090601f016020900481019282601f106102d157805160ff19168380011785556102ff565b828001600101855582156102ff579182015b828111156102fe5782518255916020019190600101906102e3565b5b50905061030c919061034b565b5090565b5b8082111561034757600081816101000a81549073ffffffffffffffffffffffffffffffffffffffff021916905550600101610311565b5090565b5b8082111561036457600081600090555060010161034c565b5090565b610811806103776000396000f3fe608060405234801561001057600080fd5b50600436106100935760003560e01c8063b36fafb511610066578063b36fafb5146101f3578063b9aee03114610235578063cbff75cb14610277578063cf31ff86146102d1578063e13804a71461032b57610093565b80630121b93f146100985780632d35a8a2146100c65780633477ee2e146100e4578063a3ec138d14610199575b600080fd5b6100c4600480360360208110156100ae57600080fd5b81019080803590602001909291905050506103d2565b005b6100ce610503565b6040518082815260200191505060405180910390f35b610110600480360360208110156100fa57600080fd5b8101908080359060200190929190505050610509565b6040518084815260200180602001838152602001828103825284818151815260200191508051906020019080838360005b8381101561015c578082015181840152602081019050610141565b50505050905090810190601f1680156101895780820380516001836020036101000a031916815260200191505b5094505050505060405180910390f35b6101db600480360360208110156101af57600080fd5b81019080803573ffffffffffffffffffffffffffffffffffffffff1690602001909291905050506105cb565b60405180821515815260200191505060405180910390f35b61021f6004803603602081101561020957600080fd5b81019080803590602001909291905050506105eb565b6040518082815260200191505060405180910390f35b6102616004803603602081101561024b57600080fd5b810190808035906020019092919050505061060b565b6040518082815260200191505060405180910390f35b6102b96004803603602081101561028d57600080fd5b81019080803573ffffffffffffffffffffffffffffffffffffffff16906020019092919050505061062b565b60405180821515815260200191505060405180910390f35b610313600480360360208110156102e757600080fd5b81019080803573ffffffffffffffffffffffffffffffffffffffff169060200190929190505050610681565b60405180821515815260200191505060405180910390f35b6103576004803603602081101561034157600080fd5b8101908080359060200190929190505050610723565b6040518080602001828103825283818151815260200191508051906020019080838360005b8381101561039757808201518184015260208101905061037c565b50505050905090810190601f1680156103c45780820380516001836020036101000a031916815260200191505b509250505060405180910390f35b6103db33610681565b6103e457600080fd5b600160003373ffffffffffffffffffffffffffffffffffffffff1673ffffffffffffffffffffffffffffffffffffffff16815260200190815260200160002060009054906101000a900460ff161561043b57600080fd5b60008111801561044d57506003548111155b61045657600080fd5b60018060003373ffffffffffffffffffffffffffffffffffffffff1673ffffffffffffffffffffffffffffffffffffffff16815260200190815260200160002060006101000a81548160ff0219169083151502179055506002600082815260200190815260200160002060020160008154809291906001019190505550807ffff3c900d938d21d0990d786e819f29b8d05c1ef587b462b939609625b684b1660405160405180910390a250565b60035481565b6002602052806000526040600020600091509050806000015490806001018054600181600116156101000203166002900480601f0160208091040260200160405190810160405280929190818152602001828054600181600116156101000203166002900480156105bb5780601f10610590576101008083540402835291602001916105bb565b820191906000526020600020905b81548152906001019060200180831161059e57829003601f168201915b5050505050908060020154905083565b60016020528060005260406000206000915054906101000a900460ff1681565b600060026000838152602001908152602001600020600001549050919050565b600060026000838152602001908152602001600020600201549050919050565b6000600160008373ffffffffffffffffffffffffffffffffffffffff1673ffffffffffffffffffffffffffffffffffffffff16815260200190815260200160002060009054906101000a900460ff169050919050565b600080600090505b600080549050811015610718578273ffffffffffffffffffffffffffffffffffffffff16600082815481106106ba57fe5b9060005260206000200160009054906101000a900473ffffffffffffffffffffffffffffffffffffffff1673ffffffffffffffffffffffffffffffffffffffff16141561070b57600191505061071e565b8080600101915050610689565b50600090505b919050565b6060600260008381526020019081526020016000206001018054600181600116156101000203166002900480601f0160208091040260200160405190810160405280929190818152602001828054600181600116156101000203166002900480156107cf5780601f106107a4576101008083540402835291602001916107cf565b820191906000526020600020905b8154815290600101906020018083116107b257829003601f168201915b5050505050905091905056fea2646970667358221220d1db8f9f8d88d4f90f0366d989fa43000d89bdb56c80d8fdb9c33e4fca84a07464736f6c634300060c0033",
  "immutableReferences": {},
  "source": "// SPDX-License-Identifier: GPL-3.0\npragma solidity 0.6.12;\n\ncontract Votacion {\n    // Estructura de un Candidato\n    struct Candidate {\n        uint256 id;\n        string name;\n        uint256 voteCount;\n    }\n    address[] private addresses = [\n        0x033543C6e665a3d67A33A7C6085f6aBD49a7f098,\n        0x78C35A5FE4BcC134adca2e9d4222E2a5c4d50736,\n        0x07145aECD7B0A10CC4dF0C7e32000Ff545695Af7\n    ];\n\n    // Almacena las cuentas que ya votaron\n    mapping(address => bool) public voters;\n\n    // Almacena candidato\n    // y Buscar Candidato\n    mapping(uint256 => Candidate) public candidates;\n\n    // Total de candidatos\n    uint256 public candidatesCount;\n\n    // Evento votacion\n    event votedEvent(uint256 indexed _candidateId);\n\n    //CONSTRUCTOR\n    constructor() public {\n        addCandidate(\"Candidato 1\");\n        addCandidate(\"Candidato 2\");\n    }\n\n    //FUNCIONES\n\n    function addCandidate(string memory _name) private {\n        candidatesCount++;\n        candidates[candidatesCount] = Candidate(candidatesCount, _name, 0);\n    }\n\n    function vote(uint256 _candidateId) public {\n        //verificamos si es una llave valida para votar\n        require(isAddressValid(msg.sender));\n\n        //verificamos que una cuenta no voto antes\n        require(!voters[msg.sender]);\n\n        // verificamos si es un candidato valido para votar\n        require(_candidateId > 0 && _candidateId <= candidatesCount);\n\n        // establecemos que la cuenta ya voto\n        voters[msg.sender] = true;\n\n        // actualiza numero de votos del candidato\n        candidates[_candidateId].voteCount++;\n\n        // emitimos un evento\n        emit votedEvent(_candidateId);\n    }\n\n    //FUNCIONES DE AYUDA\n\n    //verifica si es una llave valida para votar\n    function isAddressValid(address _address) public view returns (bool) {\n        for (uint256 i = 0; i < addresses.length; i++) {\n            if (addresses[i] == _address) {\n                return true;\n            }\n        }\n        return false;\n    }\n\n    //para comprobar que el candidato ya voto\n    function isVoted(address _voterAddress) public view returns (bool) {\n        return voters[_voterAddress];\n    }\n\n    //obtiene el id del candidato\n    function getCandidateId(uint256 _candidateId)\n        public\n        view\n        returns (uint256)\n    {\n        return candidates[_candidateId].id;\n    }\n\n    //obtine el id del candidato para verificar que tiene el mismo id\n    function getCandidateName(uint256 _candidateId)\n        public\n        view\n        returns (string memory)\n    {\n        return candidates[_candidateId].name;\n    }\n\n    //obtiene los votos de un candidato\n    function getCandidateVotersCount(uint256 _candidateId)\n        public\n        view\n        returns (uint256)\n    {\n        return candidates[_candidateId].voteCount;\n    }\n}\n",
  "sourcePath": "D:\\ProjectsJoseTanta\\ProjectsDapps\\votacion-f\\contracts\\Votacion.sol",
  "compiler": {
    "name": "solc",
    "version": "0.6.12+commit.27d51765.Emscripten.clang"
  },
  "schemaVersion": "3.4.2",
  "updatedAt": "2021-07-30T03:59:59.334Z",
  "networkType": "ethereum",
  "devdoc": {
    "kind": "dev",
    "methods": {},
    "version": 1
  },
  "userdoc": {
    "kind": "user",
    "methods": {},
    "version": 1
  }
}